{
  "abi": [
    {
      "type": "function",
      "name": "grantAccess",
      "inputs": [
        {
          "name": "user",
          "type": "address",
          "internalType": "address"
        }
      ],
      "outputs": [],
      "stateMutability": "nonpayable"
    },
    {
      "type": "function",
      "name": "hasRevokedAccess",
      "inputs": [
        {
          "name": "user",
          "type": "address",
          "internalType": "address"
        }
      ],
      "outputs": [
        {
          "name": "",
          "type": "bool",
          "internalType": "bool"
        }
      ],
      "stateMutability": "view"
    },
    {
      "type": "function",
      "name": "revokeAccess",
      "inputs": [
        {
          "name": "user",
          "type": "address",
          "internalType": "address"
        }
      ],
      "outputs": [],
      "stateMutability": "nonpayable"
    },
    {
      "type": "function",
      "name": "revokedAccess",
      "inputs": [
        {
          "name": "",
          "type": "address",
          "internalType": "address"
        }
      ],
      "outputs": [
        {
          "name": "",
          "type": "bool",
          "internalType": "bool"
        }
      ],
      "stateMutability": "view"
    }
  ],
  "bytecode": {
    "object": "0x608060405234801561001057600080fd5b5061017d806100206000396000f3fe608060405234801561001057600080fd5b506004361061004c5760003560e01c80630ae5e7391461005157806333db35eb14610082578063479ceae4146100b957806385e68531146100e5575b600080fd5b61008061005f366004610117565b6001600160a01b03166000908152602081905260409020805460ff19169055565b005b6100a5610090366004610117565b60006020819052908152604090205460ff1681565b604051901515815260200160405180910390f35b6100a56100c7366004610117565b6001600160a01b031660009081526020819052604090205460ff1690565b6100806100f3366004610117565b6001600160a01b03166000908152602081905260409020805460ff19166001179055565b60006020828403121561012957600080fd5b81356001600160a01b038116811461014057600080fd5b939250505056fea26469706673582212204aac2421257252aadb759db2113b18263d4f171961154f7a5886243ccb76d0dc64736f6c63430008180033",
    "linkReferences": {}
  },
  "methodIdentifiers": {
    "grantAccess(address)": "0ae5e739",
    "hasRevokedAccess(address)": "479ceae4",
    "revokeAccess(address)": "85e68531",
    "revokedAccess(address)": "33db35eb"
  },
  "id": 23
}