{"abi":[{"type":"constructor","inputs":[{"name":"_addresses","type":"address[]","internalType":"address[]"},{"name":"_threshold","type":"uint256","internalType":"uint256"}],"stateMutability":"nonpayable"},{"type":"function","name":"SIGNATURE_THRESHOLD","inputs":[],"outputs":[{"name":"","type":"uint256","internalType":"uint256"}],"stateMutability":"view"},{"type":"function","name":"getWhitelistedAddresses","inputs":[],"outputs":[{"name":"","type":"address[]","internalType":"address[]"}],"stateMutability":"view"},{"type":"function","name":"isValidSignature","inputs":[{"name":"_hash","type":"bytes32","internalType":"bytes32"},{"name":"_signatures","type":"bytes","internalType":"bytes"}],"outputs":[{"name":"","type":"bytes4","internalType":"bytes4"}],"stateMutability":"view"},{"type":"function","name":"isWhitelisted","inputs":[{"name":"_address","type":"address","internalType":"address"}],"outputs":[{"name":"","type":"bool","internalType":"bool"}],"stateMutability":"view"},{"type":"function","name":"signTx","inputs":[{"name":"_txHash","type":"bytes32","internalType":"bytes32"},{"name":"_signature","type":"bytes","internalType":"bytes"}],"outputs":[{"name":"","type":"bool","internalType":"bool"}],"stateMutability":"nonpayable"},{"type":"function","name":"signatures","inputs":[{"name":"","type":"bytes32","internalType":"bytes32"}],"outputs":[{"name":"","type":"bytes","internalType":"bytes"}],"stateMutability":"view"},{"type":"function","name":"whitelist","inputs":[{"name":"","type":"address","internalType":"address"}],"outputs":[{"name":"","type":"bool","internalType":"bool"}],"stateMutability":"view"},{"type":"function","name":"whitelistedAddresses","inputs":[{"name":"","type":"uint256","internalType":"uint256"}],"outputs":[{"name":"","type":"address","internalType":"address"}],"stateMutability":"view"}],"bytecode":{"object":"0x60a06040523480156200001157600080fd5b5060405162000d3e38038062000d3e833981016040819052620000349162000135565b60005b8251811015620000f75760016000808584815181106200005b576200005b6200020f565b60200260200101516001600160a01b03166001600160a01b0316815260200190815260200160002060006101000a81548160ff0219169083151502179055506001838281518110620000b157620000b16200020f565b60209081029190910181015182546001808201855560009485529290932090920180546001600160a01b0319166001600160a01b03909316929092179091550162000037565b506080525062000225565b634e487b7160e01b600052604160045260246000fd5b80516001600160a01b03811681146200013057600080fd5b919050565b600080604083850312156200014957600080fd5b82516001600160401b03808211156200016157600080fd5b818501915085601f8301126200017657600080fd5b81516020828211156200018d576200018d62000102565b8160051b604051601f19603f83011681018181108682111715620001b557620001b562000102565b604052928352818301935084810182019289841115620001d457600080fd5b948201945b83861015620001fd57620001ed8662000118565b85529482019493820193620001d9565b97909101519698969750505050505050565b634e487b7160e01b600052603260045260246000fd5b608051610af66200024860003960008181610106015261053a0152610af66000f3fe608060405234801561001057600080fd5b50600436106100885760003560e01c80633af32abf1161005b5780633af32abf146101365780636d028027146101625780639b19251a14610177578063ba4e5c491461019a57600080fd5b80630f1b1cd21461008d5780631626ba7e146100b55780632422224e146100e157806324763d0714610101575b600080fd5b6100a061009b3660046106c0565b6101c5565b60405190151581526020015b60405180910390f35b6100c86100c33660046106c0565b6103f6565b6040516001600160e01b031990911681526020016100ac565b6100f46100ef36600461077b565b610584565b6040516100ac91906107b8565b6101287f000000000000000000000000000000000000000000000000000000000000000081565b6040519081526020016100ac565b6100a06101443660046107eb565b6001600160a01b031660009081526020819052604090205460ff1690565b61016a61061e565b6040516100ac919061081b565b6100a06101853660046107eb565b60006020819052908152604090205460ff1681565b6101ad6101a836600461077b565b610680565b6040516001600160a01b0390911681526020016100ac565b6000815160411461021d5760405162461bcd60e51b815260206004820152601860248201527f496e76616c6964207369676e6174757265206c656e677468000000000000000060448201526064015b60405180910390fd5b60208201516040830151606084015160001a601b81101561024657610243601b8261087e565b90505b6040805160008082526020820180845289905260ff841692820192909252606081018590526080810184905260019060a0016020604051602081039080840390855afa15801561029a573d6000803e3d6000fd5b5050604051601f1901519150506001600160a01b0381166102fd5760405162461bcd60e51b815260206004820152601860248201527f45434453413a20696e76616c6964207369676e617475726500000000000000006044820152606401610214565b6001600160a01b03811660009081526020819052604090205460ff1661035e5760405162461bcd60e51b815260206004820152601660248201527514da59db995c881b9bdd081dda1a5d195b1a5cdd195960521b6044820152606401610214565b6000878152600260205260409020805461037790610897565b905060000361039e5760008781526002602052604090206103988782610922565b506103e7565b60008781526002602090815260409182902091516103bf92918991016109e2565b60408051601f198184030181529181526000898152600260205220906103e59082610922565b505b60019450505050505b92915050565b6000815160000361041057506001600160e01b03196103f0565b6041825161041e9190610a7f565b1561043257506001600160e01b03196103f0565b6000604183516104429190610a93565b90506000805b82811015610537576041810285016020810151604082015160609092015190919060001a601b81101561048357610480601b8261087e565b90505b604080516000808252602082018084528c905260ff841692820192909252606081018590526080810184905260019060a0016020604051602081039080840390855afa1580156104d7573d6000803e3d6000fd5b5050604051601f1901519150506001600160a01b0381161580159061051457506001600160a01b03811660009081526020819052604090205460ff165b15610527578561052381610aa7565b9650505b5050600190920191506104489050565b507f000000000000000000000000000000000000000000000000000000000000000081106105715750630b135d3f60e11b91506103f09050565b506001600160e01b031991506103f09050565b6002602052600090815260409020805461059d90610897565b80601f01602080910402602001604051908101604052809291908181526020018280546105c990610897565b80156106165780601f106105eb57610100808354040283529160200191610616565b820191906000526020600020905b8154815290600101906020018083116105f957829003601f168201915b505050505081565b6060600180548060200260200160405190810160405280929190818152602001828054801561067657602002820191906000526020600020905b81546001600160a01b03168152600190910190602001808311610658575b5050505050905090565b6001818154811061069057600080fd5b6000918252602090912001546001600160a01b0316905081565b634e487b7160e01b600052604160045260246000fd5b600080604083850312156106d357600080fd5b82359150602083013567ffffffffffffffff808211156106f257600080fd5b818501915085601f83011261070657600080fd5b813581811115610718576107186106aa565b604051601f8201601f19908116603f01168101908382118183101715610740576107406106aa565b8160405282815288602084870101111561075957600080fd5b8260208601602083013760006020848301015280955050505050509250929050565b60006020828403121561078d57600080fd5b5035919050565b60005b838110156107af578181015183820152602001610797565b50506000910152565b60208152600082518060208401526107d7816040850160208701610794565b601f01601f19169190910160400192915050565b6000602082840312156107fd57600080fd5b81356001600160a01b038116811461081457600080fd5b9392505050565b6020808252825182820181905260009190848201906040850190845b8181101561085c5783516001600160a01b031683529284019291840191600101610837565b50909695505050505050565b634e487b7160e01b600052601160045260246000fd5b60ff81811683821601908111156103f0576103f0610868565b600181811c908216806108ab57607f821691505b6020821081036108cb57634e487b7160e01b600052602260045260246000fd5b50919050565b601f82111561091d576000816000526020600020601f850160051c810160208610156108fa5750805b601f850160051c820191505b8181101561091957828155600101610906565b5050505b505050565b815167ffffffffffffffff81111561093c5761093c6106aa565b6109508161094a8454610897565b846108d1565b602080601f831160018114610985576000841561096d5750858301515b600019600386901b1c1916600185901b178555610919565b600085815260208120601f198616915b828110156109b457888601518255948401946001909101908401610995565b50858210156109d25787850151600019600388901b60f8161c191681555b5050505050600190811b01905550565b60008084546109f081610897565b60018281168015610a085760018114610a1d57610a4c565b60ff1984168752821515830287019450610a4c565b8860005260208060002060005b85811015610a435781548a820152908401908201610a2a565b50505082870194505b505050508351610a60818360208801610794565b01949350505050565b634e487b7160e01b600052601260045260246000fd5b600082610a8e57610a8e610a69565b500690565b600082610aa257610aa2610a69565b500490565b600060018201610ab957610ab9610868565b506001019056fea2646970667358221220dfa09eb43d1e3053db021afac4ae0e8d288bbfbb33bff6b8d55e5eaf59a3b29c64736f6c63430008180033","linkReferences":{}},"methodIdentifiers":{"SIGNATURE_THRESHOLD()":"24763d07","getWhitelistedAddresses()":"6d028027","isValidSignature(bytes32,bytes)":"1626ba7e","isWhitelisted(address)":"3af32abf","signTx(bytes32,bytes)":"0f1b1cd2","signatures(bytes32)":"2422224e","whitelist(address)":"9b19251a","whitelistedAddresses(uint256)":"ba4e5c49"},"id":25}